{
  "_format": "hh-sol-artifact-1",
  "contractName": "Dads",
  "sourceName": "contracts/Dads.sol",
  "abi": [
    {
      "inputs": [],
      "stateMutability": "nonpayable",
      "type": "constructor"
    },
    {
      "anonymous": false,
      "inputs": [
        {
          "indexed": true,
          "internalType": "address",
          "name": "from",
          "type": "address"
        },
        {
          "indexed": true,
          "internalType": "address",
          "name": "receiver",
          "type": "address"
        },
        {
          "indexed": false,
          "internalType": "uint256",
          "name": "amount",
          "type": "uint256"
        },
        {
          "indexed": false,
          "internalType": "string",
          "name": "message",
          "type": "string"
        },
        {
          "indexed": false,
          "internalType": "uint256",
          "name": "timestamp",
          "type": "uint256"
        },
        {
          "indexed": false,
          "internalType": "string",
          "name": "keyword",
          "type": "string"
        }
      ],
      "name": "Transfer",
      "type": "event"
    },
    {
      "inputs": [
        {
          "internalType": "address payable",
          "name": "receiver",
          "type": "address"
        },
        {
          "internalType": "uint256",
          "name": "amount",
          "type": "uint256"
        },
        {
          "internalType": "string",
          "name": "message",
          "type": "string"
        },
        {
          "internalType": "string",
          "name": "keyword",
          "type": "string"
        }
      ],
      "name": "addToBlockChain",
      "outputs": [],
      "stateMutability": "nonpayable",
      "type": "function"
    },
    {
      "inputs": [
        {
          "internalType": "address",
          "name": "owner",
          "type": "address"
        }
      ],
      "name": "balanceOf",
      "outputs": [
        {
          "internalType": "uint256",
          "name": "",
          "type": "uint256"
        }
      ],
      "stateMutability": "view",
      "type": "function"
    },
    {
      "inputs": [
        {
          "internalType": "address",
          "name": "",
          "type": "address"
        }
      ],
      "name": "balances",
      "outputs": [
        {
          "internalType": "uint256",
          "name": "",
          "type": "uint256"
        }
      ],
      "stateMutability": "view",
      "type": "function"
    },
    {
      "inputs": [],
      "name": "decimals",
      "outputs": [
        {
          "internalType": "uint256",
          "name": "",
          "type": "uint256"
        }
      ],
      "stateMutability": "view",
      "type": "function"
    },
    {
      "inputs": [],
      "name": "getAllTransactions",
      "outputs": [
        {
          "components": [
            {
              "internalType": "address",
              "name": "sender",
              "type": "address"
            },
            {
              "internalType": "address",
              "name": "receiver",
              "type": "address"
            },
            {
              "internalType": "uint256",
              "name": "amount",
              "type": "uint256"
            },
            {
              "internalType": "string",
              "name": "message",
              "type": "string"
            },
            {
              "internalType": "uint256",
              "name": "timestamp",
              "type": "uint256"
            },
            {
              "internalType": "string",
              "name": "keyword",
              "type": "string"
            }
          ],
          "internalType": "struct Dads.TransferStruct[]",
          "name": "",
          "type": "tuple[]"
        }
      ],
      "stateMutability": "view",
      "type": "function"
    },
    {
      "inputs": [],
      "name": "getTransactionCount",
      "outputs": [
        {
          "internalType": "uint256",
          "name": "",
          "type": "uint256"
        }
      ],
      "stateMutability": "view",
      "type": "function"
    },
    {
      "inputs": [],
      "name": "name",
      "outputs": [
        {
          "internalType": "string",
          "name": "",
          "type": "string"
        }
      ],
      "stateMutability": "view",
      "type": "function"
    },
    {
      "inputs": [],
      "name": "symbol",
      "outputs": [
        {
          "internalType": "string",
          "name": "",
          "type": "string"
        }
      ],
      "stateMutability": "view",
      "type": "function"
    },
    {
      "inputs": [
        {
          "internalType": "address",
          "name": "receiver",
          "type": "address"
        },
        {
          "internalType": "uint256",
          "name": "amount",
          "type": "uint256"
        },
        {
          "internalType": "string",
          "name": "message",
          "type": "string"
        },
        {
          "internalType": "string",
          "name": "keyword",
          "type": "string"
        }
      ],
      "name": "transfer",
      "outputs": [
        {
          "internalType": "bool",
          "name": "",
          "type": "bool"
        }
      ],
      "stateMutability": "nonpayable",
      "type": "function"
    }
  ],
  "bytecode": "0x60806040523480156200001157600080fd5b506040518060400160405280600c81526020017f44616473204e6574776f726b0000000000000000000000000000000000000000815250600090805190602001906200005f9291906200012a565b506040518060400160405280600481526020017f444144530000000000000000000000000000000000000000000000000000000081525060019080519060200190620000ad9291906200012a565b506012600281905550600254600a620000c7919062000235565b633b9aca00620000d8919062000372565b600381905550600354600460003373ffffffffffffffffffffffffffffffffffffffff1673ffffffffffffffffffffffffffffffffffffffff168152602001908152602001600020819055506200047e565b8280546200013890620003dd565b90600052602060002090601f0160209004810192826200015c5760008555620001a8565b82601f106200017757805160ff1916838001178555620001a8565b82800160010185558215620001a8579182015b82811115620001a75782518255916020019190600101906200018a565b5b509050620001b79190620001bb565b5090565b5b80821115620001d6576000816000905550600101620001bc565b5090565b6000808291508390505b60018511156200022c5780860481111562000204576200020362000413565b5b6001851615620002145780820291505b8081029050620002248562000471565b9450620001e4565b94509492505050565b60006200024282620003d3565b91506200024f83620003d3565b92506200027e7fffffffffffffffffffffffffffffffffffffffffffffffffffffffffffffffff848462000286565b905092915050565b6000826200029857600190506200036b565b81620002a857600090506200036b565b8160018114620002c15760028114620002cc5762000302565b60019150506200036b565b60ff841115620002e157620002e062000413565b5b8360020a915084821115620002fb57620002fa62000413565b5b506200036b565b5060208310610133831016604e8410600b84101617156200033c5782820a90508381111562000336576200033562000413565b5b6200036b565b6200034b8484846001620001da565b9250905081840481111562000365576200036462000413565b5b81810290505b9392505050565b60006200037f82620003d3565b91506200038c83620003d3565b9250817fffffffffffffffffffffffffffffffffffffffffffffffffffffffffffffffff0483118215151615620003c857620003c762000413565b5b828202905092915050565b6000819050919050565b60006002820490506001821680620003f657607f821691505b602082108114156200040d576200040c62000442565b5b50919050565b7f4e487b7100000000000000000000000000000000000000000000000000000000600052601160045260246000fd5b7f4e487b7100000000000000000000000000000000000000000000000000000000600052602260045260246000fd5b60008160011c9050919050565b610fbb806200048e6000396000f3fe608060405234801561001057600080fd5b50600436106100935760003560e01c8063313ce56711610066578063313ce5671461012257806370a082311461014057806395d89b4114610170578063b2da09601461018e578063e9c02815146101aa57610093565b806306fdde031461009857806327506f53146100b657806327e235e3146100d45780632e7700f014610104575b600080fd5b6100a06101da565b6040516100ad9190610b84565b60405180910390f35b6100be610268565b6040516100cb9190610b47565b60405180910390f35b6100ee60048036038101906100e9919061080e565b61026d565b6040516100fb9190610bc6565b60405180910390f35b61010c610285565b6040516101199190610bc6565b60405180910390f35b61012a61028a565b6040516101379190610bc6565b60405180910390f35b61015a6004803603810190610155919061080e565b610290565b6040516101679190610bc6565b60405180910390f35b6101786102d9565b6040516101859190610b84565b60405180910390f35b6101a860048036038101906101a39190610837565b610367565b005b6101c460048036038101906101bf91906108ca565b610554565b6040516101d19190610b69565b60405180910390f35b600080546101e790610e16565b80601f016020809104026020016040519081016040528092919081815260200182805461021390610e16565b80156102605780601f1061023557610100808354040283529160200191610260565b820191906000526020600020905b81548152906001019060200180831161024357829003601f168201915b505050505081565b606090565b60046020528060005260406000206000915090505481565b600090565b60025481565b6000600460008373ffffffffffffffffffffffffffffffffffffffff1673ffffffffffffffffffffffffffffffffffffffff168152602001908152602001600020549050919050565b600180546102e690610e16565b80601f016020809104026020016040519081016040528092919081815260200182805461031290610e16565b801561035f5780601f106103345761010080835404028352916020019161035f565b820191906000526020600020905b81548152906001019060200180831161034257829003601f168201915b505050505081565b60016005600082825461037a9190610cf0565b9250508190555060066040518060c001604052803373ffffffffffffffffffffffffffffffffffffffff1681526020018673ffffffffffffffffffffffffffffffffffffffff16815260200185815260200184815260200142815260200183815250908060018154018082558091505060019003906000526020600020906006020160009091909190915060008201518160000160006101000a81548173ffffffffffffffffffffffffffffffffffffffff021916908373ffffffffffffffffffffffffffffffffffffffff16021790555060208201518160010160006101000a81548173ffffffffffffffffffffffffffffffffffffffff021916908373ffffffffffffffffffffffffffffffffffffffff1602179055506040820151816002015560608201518160030190805190602001906104b99291906106c4565b506080820151816004015560a08201518160050190805190602001906104e09291906106c4565b5050508373ffffffffffffffffffffffffffffffffffffffff163373ffffffffffffffffffffffffffffffffffffffff167f416cfa4330a4565f45c2fd2dd4826a83a37443aba2ce6f79477c7355afac35fa858542866040516105469493929190610be1565b60405180910390a350505050565b60008361056033610290565b10156105a1576040517f08c379a000000000000000000000000000000000000000000000000000000000815260040161059890610ba6565b60405180910390fd5b83600460008773ffffffffffffffffffffffffffffffffffffffff1673ffffffffffffffffffffffffffffffffffffffff16815260200190815260200160002060008282546105f09190610cf0565b9250508190555083600460003373ffffffffffffffffffffffffffffffffffffffff1673ffffffffffffffffffffffffffffffffffffffff16815260200190815260200160002060008282546106469190610d46565b925050819055508473ffffffffffffffffffffffffffffffffffffffff163373ffffffffffffffffffffffffffffffffffffffff167f416cfa4330a4565f45c2fd2dd4826a83a37443aba2ce6f79477c7355afac35fa868642876040516106b09493929190610be1565b60405180910390a360019050949350505050565b8280546106d090610e16565b90600052602060002090601f0160209004810192826106f25760008555610739565b82601f1061070b57805160ff1916838001178555610739565b82800160010185558215610739579182015b8281111561073857825182559160200191906001019061071d565b5b509050610746919061074a565b5090565b5b8082111561076357600081600090555060010161074b565b5090565b600061077a61077584610c59565b610c34565b90508281526020810184848401111561079257600080fd5b61079d848285610dd4565b509392505050565b6000813590506107b481610f40565b92915050565b6000813590506107c981610f57565b92915050565b600082601f8301126107e057600080fd5b81356107f0848260208601610767565b91505092915050565b60008135905061080881610f6e565b92915050565b60006020828403121561082057600080fd5b600061082e848285016107a5565b91505092915050565b6000806000806080858703121561084d57600080fd5b600061085b878288016107ba565b945050602061086c878288016107f9565b935050604085013567ffffffffffffffff81111561088957600080fd5b610895878288016107cf565b925050606085013567ffffffffffffffff8111156108b257600080fd5b6108be878288016107cf565b91505092959194509250565b600080600080608085870312156108e057600080fd5b60006108ee878288016107a5565b94505060206108ff878288016107f9565b935050604085013567ffffffffffffffff81111561091c57600080fd5b610928878288016107cf565b925050606085013567ffffffffffffffff81111561094557600080fd5b610951878288016107cf565b91505092959194509250565b60006109698383610a99565b905092915050565b61097a81610d7a565b82525050565b600061098b82610c9a565b6109958185610cbd565b9350836020820285016109a785610c8a565b8060005b858110156109e357848403895281516109c4858261095d565b94506109cf83610cb0565b925060208a019950506001810190506109ab565b50829750879550505050505092915050565b6109fe81610d9e565b82525050565b6000610a0f82610ca5565b610a198185610cce565b9350610a29818560208601610de3565b610a3281610f06565b840191505092915050565b6000610a4882610ca5565b610a528185610cdf565b9350610a62818560208601610de3565b610a6b81610f06565b840191505092915050565b6000610a83601b83610cdf565b9150610a8e82610f17565b602082019050919050565b600060c083016000830151610ab16000860182610971565b506020830151610ac46020860182610971565b506040830151610ad76040860182610b29565b5060608301518482036060860152610aef8282610a04565b9150506080830151610b046080860182610b29565b5060a083015184820360a0860152610b1c8282610a04565b9150508091505092915050565b610b3281610dca565b82525050565b610b4181610dca565b82525050565b60006020820190508181036000830152610b618184610980565b905092915050565b6000602082019050610b7e60008301846109f5565b92915050565b60006020820190508181036000830152610b9e8184610a3d565b905092915050565b60006020820190508181036000830152610bbf81610a76565b9050919050565b6000602082019050610bdb6000830184610b38565b92915050565b6000608082019050610bf66000830187610b38565b8181036020830152610c088186610a3d565b9050610c176040830185610b38565b8181036060830152610c298184610a3d565b905095945050505050565b6000610c3e610c4f565b9050610c4a8282610e48565b919050565b6000604051905090565b600067ffffffffffffffff821115610c7457610c73610ed7565b5b610c7d82610f06565b9050602081019050919050565b6000819050602082019050919050565b600081519050919050565b600081519050919050565b6000602082019050919050565b600082825260208201905092915050565b600082825260208201905092915050565b600082825260208201905092915050565b6000610cfb82610dca565b9150610d0683610dca565b9250827fffffffffffffffffffffffffffffffffffffffffffffffffffffffffffffffff03821115610d3b57610d3a610e79565b5b828201905092915050565b6000610d5182610dca565b9150610d5c83610dca565b925082821015610d6f57610d6e610e79565b5b828203905092915050565b6000610d8582610daa565b9050919050565b6000610d9782610daa565b9050919050565b60008115159050919050565b600073ffffffffffffffffffffffffffffffffffffffff82169050919050565b6000819050919050565b82818337600083830152505050565b60005b83811015610e01578082015181840152602081019050610de6565b83811115610e10576000848401525b50505050565b60006002820490506001821680610e2e57607f821691505b60208210811415610e4257610e41610ea8565b5b50919050565b610e5182610f06565b810181811067ffffffffffffffff82111715610e7057610e6f610ed7565b5b80604052505050565b7f4e487b7100000000000000000000000000000000000000000000000000000000600052601160045260246000fd5b7f4e487b7100000000000000000000000000000000000000000000000000000000600052602260045260246000fd5b7f4e487b7100000000000000000000000000000000000000000000000000000000600052604160045260246000fd5b6000601f19601f8301169050919050565b7f596f752068617665206e6f7420656e6f75676820616d6f756e74210000000000600082015250565b610f4981610d7a565b8114610f5457600080fd5b50565b610f6081610d8c565b8114610f6b57600080fd5b50565b610f7781610dca565b8114610f8257600080fd5b5056fea2646970667358221220cc083abcc5ca4a314df4b0ba6ce4beec19b46a40856bfda6ff6826795b9ae92864736f6c63430008040033",
  "linkReferences": {},
  "deployedLinkReferences": {}
}